:020000020000FC
:100000005CD025D03CE063D041D0D4D080E074E116
:10001000DBD0EEEAF1E46CD0ECE9F1E469D0E2EA9D
:10002000F1E466D0E8EAF1E463D082E074E6CCD093
:10003000E6E9F1E45DD028D196E0C3E4D0E082E0C7
:1000400074E1C2D0599149D09A95E1F7F4CFE4E533
:10005000F0E40895A81F2200032000DA028D14AFF7
:10006000A1C8089A000008950898000008950A9A07
:10007000000008950A980000089500E001B902B94F
:100080000895EFDFF4DF18E705D00895EADFF2DF27
:10009000EBDF089528E0E5DF012F007807FDE4DFBE
:1000A0000000E8DF110FE3DF2A95A9F7DDDFE2DFCB
:1000B00000000000DCDFD5DF0895DFDFE2DF10E0C5
:1000C000E9DF0895DADFDDDF10E4E4DF0895419130
:1000D000142FE0DF3A95D9F70895EAEFF0E440E213
:1000E000541B31F00027EA5FFF4F03950517D9F73E
:1000F000E9DF36E0ECDFCADF089500000000000011
:1001000000002F000000000700070000147F147F8C
:100110001400242A7F2A120062640813230036493F
:1001200055225000000503000000001C2241000081
:100130000041221C000014083E08140008083E0874
:1001400008000000A060000008080808080000601F
:10015000600000002010080402003E5149453E00A6
:1001600000427F4000004261514946002141454B19
:1001700031001814127F10002745454539003C4ACC
:1001800049493000017109050300364949493600E3
:10019000064949291E003E41414122007F49494903
:1001A00041007F020C027F007F090909060001015E
:1001B0007F01010044E086DF30E810E06BDF3A9514
:1001C000E1F74A95C9F7089578DF12E263DF182F47
:1001D00061DF13E05FDF11E25DDF172F5BDF1FE7F9
:1001E00059DF54DF089533273395BB27C0E1990FBA
:1001F000AA1FBB1FBA3010F0BA509395CA95B9F731
:10020000B05DBF939C17AC0779F7341720F4339592
:1002100090E29F93FACF9F9104D03A95E1F744275B
:10022000089591930895FF2741E752E0642F752FB9
:10023000313041F0303049F03A95640F751F8F1F0F
:100240003A95D9F7442755270895772766270895C3
:1002500098E0862F869520F045D09A95D9F7089595
:1002600039D09A95B9F7089598E027D002A10030C7
:1002700051F4862F869520F035D09A95D9F70895B8
:1002800029D09A95B9F70895119817D06CECECDF46
:1002900064E4DEDF49D087FFFDCF0FD06CECE4DFF4
:1002A0006EEBD6DF25D08DA923D08CA9000005D018
:1002B00041D00895AA95F1F70895099AACE9FADFBB
:1002C0000998A4E1F7DF00B1027002A9A5E8F2DF06
:1002D00000000895099A0000000000000998A2E1BA
:1002E000E9DF0895099AA0E1E5DF099822D0089591
:1002F00098E08827099A0000000000000998000093
:100300000000000000000000019907C08894879554
:10031000AFE0D0DF9A9571F7089508948795AFE024
:10032000C9DF9A9539F7089591E08827E3DF80784F
:10033000089508950EE207A91DA12CA127FD06C06E
:1003400000E203A9312F3F706EDF0DC033271DA1DE
:100350002CA1209510951F5F312F1DA92CA93F704E
:100360000DE203A960DF962FA72FE8E4F0E044E058
:100370003ADF1DA12CA12695179526951795269550
:10038000179526951795912FA22FE4E4F0E043E00E
:040390002ADF0895C3
:00000001FF
