:020000020000FC
:1000000008ED04BF01E000936100F6D15CD206E088
:10001000009300000093010052D06CECD1D064E456
:10002000E0D0C6D08DD087FFFDCF49D06CECC8D0D2
:100030006EEBD7D068D080931B3E65D080931A3E7C
:1000400062D04093193E5FD08093183E5CD080937D
:10005000173E59D08093163E56D08093153E53D00C
:100060008093143E50D08093133E29D0CDD003E42A
:100070000093213ECCE1DEE3B6E04DD132EC82D1FB
:10008000099195D1BA9531EC7DD1099190D1BA956C
:1000900030EC78D109918BD1BA9535EC73D10991B7
:1000A00086D1BA9534EC6ED1099181D1BA9533ECF1
:1000B00069D109917CD1BA9532D1D7D1ADCF0B9806
:1000C000039AAFEDB1E057D00398A5E4B0E053D068
:1000D00002B108700093023EA9E9B1E04CD00000E3
:1000E0000895039AA5E0B0E046D00398AFE3B0E0EE
:1000F00042D00895039AABE3B0E03DD00398A9E065
:10010000B0E039D0089598E08827039AA5E0B0E0E0
:1001100032D00398A8E0B0E02ED002B1087041F4CC
:1001200088948795A6E3B0E026D09A9571F7089554
:1001300008948795A6E3B0E01ED09A9531F708950C
:1001400091E08827E2DF8078089503D02197E9F7CE
:100150000895CF93DF93CFEBD9E02197F1F7DF91AB
:10016000CF910895000000000000089500000000F5
:1001700000000000089500000000000000000000E2
:1001800000001197C1F70895C1E0D0E0DEDF0895C7
:10019000CAE0D0E0DADF0895C2E3D0E0D6DF089508
:1001A000C4E6D0E0D2DF0895C4EFD1E0CEDF0895F9
:1001B000CEEED2E0CADF0895C8EED3E0C6DF0895E0
:1001C00098E07DDF0091023E003051F4862F869545
:1001D00020F090DF9A95D9F7089583DF9A95B9F7C3
:1001E000089598E0862F869520F084DF9A95D9F7B8
:1001F000089577DF9A95B9F70895649F8001749FF9
:10020000100D569F100D089510911B3E20911A3E1F
:1002100027FD14C000E200931C3E312F3F7061E7C0
:1002200072E0432F5527E9DF3FD06092203E709265
:10023000213E8092223E9092233E1FC03327109190
:100240001B3E20911A3E209510951F5F10931B3E78
:1002500020931A3E312F3F700DE200931C3E61E760
:1002600072E0432F5527C9DF1FD06092203E709265
:10027000213E8092223E9092233E10911B3E20917F
:100280001A3E269517952695179526951795269526
:100290001795012F122F08D028D070921D3E809202
:1002A0001E3E90921F3E08952FE223950051174263
:1002B000E0F7005F184D522E2FE22395085E1340A1
:1002C000E0F708511C4F622E2FE223950456104090
:1002D000E0F70C591F4F722E2FE223950A50E8F7D2
:1002E000065F822E005D902E08950F9300E3402E4E
:1002F0000F91541409F0089500E2502E641451F443
:1003000000E2602E741431F400E2702E841411F4B3
:1003100000E2802E089534E435D00DD0089539E8F8
:1003200031D009D00895099A0A9A1CDF09981ADF7A
:100330000A9818DF089509980A9814DF0A9A12DFBC
:10034000099A10DF089528E0369570F009980ADFC1
:100350000A9A08DF0A9806DF2A95B1F7099A0A9ADD
:1003600001DF09980A980895099AFCDE0A9AFADED4
:100370000A98F8DE2A9541F7099A0A9AF3DE099855
:100380000A980895D0DFDFDF08953F0006005B0084
:100390004F0066006D007D0007007F006F00770052
:1003A0007C0039005E0079007100400000000D32D1
:1003B00029F0033431F0003239F009C0EAEAF3E001
:1003C00011C0E2EAF3E00EC0ECEAF3E00BC0EAE8A9
:1003D000F3E0A0E30A1B31F0AA27EE5FFF4FA395DD
:1003E000A017D9F73491B33019F0CCDFA4DF08950A
:1003F0003068C8DFA0DF08950091200404600093F6
:1004000020040091240404600093240406E410E115
:10041000009308081093090800E400930608089563
:1004200000910408007205FFFBCF082F009302081B
:100430000895CCE1DEE397E0933039F08991F0DF65
:100440009A9511F0F9CFA4DE08958EE2F8CFE6E791
:10045000F4E08591803011F0E3DFFBCF08958591C2
:10046000803011F0DDDFFBCF0895F1DFE2DFE4E85B
:10047000F4E0EFDF089554454D5045524154555234
:10048000450D0A00200D0A0041540A0D0000415498
:100490002B524F4C45300D0A000041542B55554905
:1004A00044464645300D0A0041542B4348415246CC
:1004B0004645310D0A0041542B4E414D4553414AAA
:1004C0004545560D0A00E8E8F4E0C9DF6DDEEEE8C8
:1004D000F4E0C5DF69DEEAE9F4E0C1DF65DEE8EA01
:1004E000F4E0BDDF61DEE6EBF4E0B9DF5DDE089548
:00000001FF
