:020000020000FC
:1000000008ED04BF01E000936100CAD00EE2009346
:10001000203E2CD06CECA7D064E4B6D09CD067D046
:1000200087FFFDCF23D06CEC9ED06EEBADD042D0DD
:1000300080931B3E3FD080931A3E3CD04093193EA4
:1000400039D08093183E36D08093173E33D08093BA
:10005000163E30D08093153E2DD08093143E2AD08A
:100060008093133E03D0E1D0CAD0D3CF0A98029A2E
:10007000AFEDB1E053D00298A5E4B0E04FD002B1AB
:1000800004700093023EA9E9B1E048D00000089551
:10009000029AA5E0B0E042D00298AFE3B0E03ED0D3
:1000A0000895029AABE3B0E039D00298A9E0B0E03D
:1000B00035D0089598E08827029AA5E0B0E02ED0C8
:1000C0000298A8E0B0E02AD002B1047041F488940C
:1000D0008795A6E3B0E022D09A9571F70895089429
:1000E0008795A6E3B0E01AD09A9531F7089591E08C
:1000F0008827E2DF8078089503D02197E9F70895F3
:10010000CF93DF93CFEBD9E02197F1F7DF91CF9138
:1001100008950000000000000000089500000000A5
:1001200000000000000000001197C1F70895C1E031
:10013000D0E0E2DF0895CAE0D0E0DEDF0895C2E358
:10014000D0E0DADF0895C4E6D0E0D6DF0895C4EF4A
:10015000D1E0D2DF0895CEEED2E0CEDF0895C8EE32
:10016000D3E0CADF089598E081DF0091023E0030BD
:1001700051F4862F869520F094DF9A95D9F708954B
:1001800087DF9A95B9F7089598E0862F869520F035
:1001900088DF9A95D9F708957BDF9A95B9F7089586
:1001A0000091200404600093200400912404046062
:1001B0000093240406E410E1009308081093090852
:1001C00000E400930608089500910408007205FFFA
:1001D000FBCF082F009302080895CCE1DEE399E0FD
:1001E00089919A9519F0F0DFFBCFA5DF0895EAE039
:1001F000F2E08591803011F0E7DFFBCF0895F7DF63
:10020000ECDFE8E1F2E0F5DF089554454D5045524A
:1002100041545552450D0A00200D0A00649F80018B
:10022000749F100D569F100D089510911B3E209144
:100230001A3E27FD14C000E200931C3E312F3F7090
:1002400061E772E0432F5527E9DF3FD06092213EFE
:100250007092223E8092233E9092243E1FC033270C
:1002600010911B3E20911A3E209510951F5F109310
:100270001B3E20931A3E312F3F700DE200931C3E2F
:1002800061E772E0432F5527C9DF1FD06092213EFE
:100290007092223E8092233E9092243E10911B3E0B
:1002A00020911A3E26951795269517952695179510
:1002B00026951795012F122F08D028D070921D3E39
:1002C00080921E3E90921F3E08952FE2239500518A
:1002D0001742E0F7005F184D522E2FE22395085E7B
:1002E0001340E0F708511C4F622E2FE2239504566D
:1002F0001040E0F70C591F4F722E2FE223950A5041
:10030000E8F7065F822E005D902E08950F9300E3BC
:10031000402E0F91541409F0089500E2502E6414F9
:1003200051F400E2602E741431F400E2702E841453
:0803300011F400E2802E089593
:00000001FF
