:020000020000FC
:100000000EE20093093E03E400930D3E00E20093EC
:100010000C3E30D00AE100B90C9A48D0C6D099D035
:100020002FD0032F0470C1F4469537954695379528
:10003000469537959FD1C2D127D280E070E09ED0FF
:1000400009E0A02EC5E0DEE30991BDD0AA94E1F756
:10005000C4EFD1E070D1E4CF0DE20093053E0093F0
:10006000063E0093073E0093083E00930A3E00932D
:100070000B3EE3CF08ED04BF01E00093610008955B
:1000800090E110D00DD073D1889412990894331F49
:10009000441F04D09A95B1F707D008950B9808959E
:1000A0000B9A08950C9808950C9A089508E200930D
:1000B000160803E00093130808E00093140801E019
:1000C000009315080895012F009317082FD004FD01
:1000D00029D00895012F0093180828D004FD22D0BC
:1000E0000895012F0093170821D0012F00931808BD
:1000F0001DD000E000931408012F009317081BD0B7
:1001000004E0023040F00A95502E00911808019347
:1001100012D05A94D1F707E0009314080091180800
:100120000193089503E000931408089500911508C1
:1001300006FFFCCF08950091150807FFFCCF089536
:10014000A81F200121007F220003DA028D14AFA135
:10015000C80003E0002E80E070E010D00CD030D05A
:10016000A4E0B0E810E0B6DFBA95E1F7AA95C9F7C8
:10017000D9DF0024089518E7A6DF0895FCDF10E01A
:10018000A9DF12E2A7DF182FA5DF13E0A3DF11E23A
:10019000A1DF172F9FDF1FE79DDFC4DF0895B59113
:1001A0001B2F98DF6A95D9F70895E5DF06D0E0E4C4
:1001B000F1E06FE0F4DFB6DF089510E08BDF089523
:1001C00010E488DF08950E3239F00D3241F0033427
:1001D00049F0003251F00CC0E6EFF2E014C0E6E264
:1001E000F3E011C0E6E1F3E00EC0E6E0F3E00BC09F
:1001F000E6E5F2E0A0E30A1B31F0AA27E05FFF4F3B
:10020000A395A017D9F701D00895B5DF10E462DFF8
:1002100060E1B59108D0112D5DDF122D5BDF6A958D
:10022000C1F780DF08959F931124222498E00B2FBB
:10023000000F40F0111C221C111C221C9A95C1F7C2
:100240009F910895111C221C0894111C221C9A9540
:1002500079F79F9108950000E00F10100820082002
:100260001010E00F0000000010201020F83F0020C8
:100270000020000000000000703008280824082238
:100280008821703000000000301808208820882065
:100290004811300E000000000007C0042024102484
:1002A000F83F002400000000F81908218820882069
:1002B0000811080E00000000E00F101188208820AF
:1002C0001811000E0000000038000800083FC800A8
:1002D0003800080000000000701C88220821082156
:1002E0008822701C00000000E00010310822082263
:1002F0001011E00F0000000000300030000000008E
:1003000000000000000000000000000000000000ED
:10031000000000000000C007301808200820082056
:100320000810380800000000000100010001000171
:1003300000010001000107D02197E9F7089503D0DB
:100340000A95E9F70895CF93DF93CFEBD9E0219792
:10035000F1F7DF91CF91089503D00A95E9F7089559
:10036000000000000000089505E0F6DF089501E0B8
:10037000F3DF08950FEFE02EFF24DD24403049F035
:1003800088943E194F09D39420E088943F3F420758
:10039000C4F709E1309F612C502C1FEF2D2D129FC7
:1003A000212D102D09E1109F702C812C209F912C64
:1003B000800C08F49394750C861C089500E3009358
:1003C000053E0093063E0093073E0093083E0093CF
:1003D0000A3E00930B3E00EA202E06E8302E01E094
:1003E000402E7214830494040CF500E1202E07E2E1
:1003F000302E7214830424F508EE202E03E0302EF4
:100400007214830434F504E6202E00E0302E7214BA
:10041000830444F50AE0202E00E0302E7214830499
:1004200054F500E3070D00930B3E08950027721862
:10043000830894080091053E03950093053ECBCFB9
:100440007218830894080091063E03950093063EB7
:10045000C2CF7218830894080091073E0395009359
:10046000073EB9CF7218830894080091083E03959F
:100470000093083EB0CF72188308940800910A3E9A
:10048000039500930A3EA7CF0091053E003309F083
:10049000089500E20093053E0091063E003351F4BA
:1004A00000E20093063E0091073E003319F400E29B
:0604B0000093073E0895D1
:00000001FF
