:020000020000FC
:100000000EE20093680003E400936C0000E20093AA
:100010006B0008E107BBC39A98E76AD05ED03FE067
:1000200071D02FD01BD12DD04DD146953795469507
:1000300037954695379557D161D12DD198E780E016
:1000400070E016D109E0A02EC4E6D0E0599160D04E
:10005000AA94E1F73FD03ED0E7CFB89A0895B89878
:100060000895BA9A0895BA98089507B30A7F07BB0E
:1000700008B30A7F08BB0895F0DFF3DF192F0BD018
:100080000895EBDFF0DFEBDF0895B89ABA9800002F
:10009000BA9AB898089528E0E0DF012F007807FDAC
:1000A000DEDF0000E0DF110FDCDF2A95A9F7D7DFE4
:1000B000DADFD7DFD2DF089503D00A95E9F7089594
:1000C000CF93DF93C5EFD0E0C150D040E9F7DF9187
:1000D000CF9108950AEFF0DF0895E0EEF0E0089583
:1000E000A81F200121007F220003DA028D14AF0037
:1000F000BCDFC2DF10E0CFDF0895B7DFBDDF10E463
:10010000CADF08954591142FC6DF3A95D9F70895AF
:100110005E3229F0533449F0503221F009C0ECE24C
:10012000F2E011C0ECE3F2E00EC0ECE4F2E00BC050
:10013000ECE8F1E040E3541B31F00027E05FFF4FB3
:1001400003950517D9F7D9DF30E102D09ADF08957A
:10015000459107D0172F9FDF182F9DDF3A95C1F7E4
:10016000089577278827B8E0042F000F38F0771F0D
:10017000881F771F881FBA95C1F70895771F881FBA
:100180000894771F881FBA9581F708950000E00F43
:100190001010082008201010E00F000000001020B0
:1001A0001020F83F00200020000000000000703008
:1001B0000828082408228821703000000000301828
:1001C0000820882088204811300E00000000000719
:1001D000C00420241024F83F002400000000F81977
:1001E0000821882088200811080E00000000E00F78
:1001F0001011882088201811000E0000000038001F
:100200000800083FC8003800080000000000701C0B
:100210008822082108218822701C00000000E000CC
:100220001031082208221011E00F000000000030F9
:10023000003000000000000000000000000000008E
:10024000000000000000000000000000C00730189F
:1002500008200820082008103808000018D04DDFBA
:10026000C0E0D2E010E017DFC150D040D9F70895C8
:100270003FDF12E210DF182F0EDF13E00CDF11E278
:100280000ADF172F08DF1FE706DFFBDE089580E097
:1002900070E0EEDF089500916400003309F00895E6
:1002A00000E20093640000916500003351F400E225
:1002B0000093650000916600003319F400E200939A
:1002C0006600089590E1C398C49A00000000000001
:1002D00000008894B1990894331F441FC4989A95DC
:1002E00099F7C39A0895662477248824992409E10C
:1002F000730E841E961C0A95D9F7089500E30093A7
:10030000640000936500009366000093670000930B
:10031000690000936A0000EA202E06E8302E01E012
:10032000402E72148304940448F500E1202E07E265
:10033000302E00E0402E7214830450F508EE202E7B
:1003400003E0302E00E0402E7214830450F504E6E2
:10035000202E00E0302E00E0402E7214830450F571
:100360000AE0202E00E0302E00E0402E72148304BC
:1003700050F500E3070D00936A00089500277218F6
:100380008308940800916400039500936400C3CF30
:100390007218830894080091650003950093650026
:1003A000BACF7218830894080091660003950093F1
:1003B0006600B1CF72188308940800916700039516
:1003C00000936700A8CF7218830894080091690011
:0803D0000395009369009FCF23
:00000001FF
