:020000020000FC
:100000004CD018D03FE053D031D0ECD080E07AE033
:10001000FAD03DD100E208A909A903E40AA999E0B0
:10002000C2E4D0E080E07AE0EED0599146D09A95D3
:10003000E1F7EFCFEAE3F0E40895A81F20012100E3
:100040007F220003DA028D14AF00089A0895089801
:1000500008950A9A08950A98089500E001B902B92E
:100060000895F3DFF6DF18E705D00895EEDFF3DF3C
:10007000EEDF089528E0E9DF012F007807FDE7DFD4
:100080000000E9DF110FE5DF2A95A9F7E0DFE3DFE4
:1000900000000000DEDFD9DF0895DFDFE2DF10E0DF
:1000A000E9DF0895DADFDDDF10E4E4DF0895419150
:1000B000142FE0DF3A95D9F708955E3239F05D32BA
:1000C00041F0533449F0503251F00CC0E4EBF1E40C
:1000D00014C0E4EDF1E411C0E4ECF1E40EC0E4EA94
:1000E000F1E40BC0E4E0F1E440E3541B31F00027FD
:1000F000E05FFF4F03950517D9F7D4DF30E1D7DF75
:10010000B5DF08950000E00F10100820082010103F
:10011000E00F0000000010201020F83F0020002019
:100120000000000000007030082808240822882100
:100130007030000000003018082088208820481106
:10014000300E000000000007C00420241024F83FF7
:10015000002400000000F8190821882088200811D8
:10016000080E00000000E00F1011882088201811F0
:10017000000E0000000038000800083FC8003800EA
:10018000080000000000701C882208210821882235
:10019000701C00000000E00010310822082210113D
:1001A000E00F000000000000000000000000000060
:1001B00000000000000000300030000000000000DF
:1001C00000000000C0073018082008200820081090
:1001D00038080000000000010001000100010001DA
:1001E0000001000143E040A980E070E00CD044E051
:1001F00059DF30E810E03EDF3A95E1F74A95C9F75C
:10020000442740A9089549DF12E234DF182F32DF76
:1002100000A100FF8F5F802B182F2CDF11E22ADF57
:10022000172F28DF1FE726DF21DF0895FF2741E78B
:1002300052E0642F752F313041F0303049F03A955B
:10024000640F751F8F1F3A95D9F7442755270895D6
:1002500077276627089598E0862F869520F045D069
:100260009A95D9F7089539D09A95B9F7089598E0F5
:1002700027D001A1003051F4862F869520F035D08B
:100280009A95D9F7089529D09A95B9F7089518D075
:100290006CECEDDF64E4DFDF4BD087FFFDCF10D0E7
:1002A000000000006CECE3DF6EEBD5DF24D08CA9FE
:1002B00022D08BA905D042D00895AA95F1F70895D0
:1002C000099AACE9FADF0998A4E1F7DF00B10270FE
:1002D00001A9A5E8F2DF00000895099A00000000D6
:1002E00000000998A0E1E9DF0895099AA0E1E5DF9F
:1002F000099823D0089598E08827099A0000000003
:10030000000009980000000000000000000000004C
:10031000019907C088948795ADE0CFDF9A9569F77A
:10032000089508948795ADE0C8DF9A9531F7089550
:1003300091E08827E2DF8078089508950EE206A90B
:100340001CA12BA127FD06C000E202A9312F3F709E
:100350006DDF0DC033271CA12BA1209510951F5FC9
:10036000312F1CA92BA93F700DE202A95FDF962F48
:10037000A72FE7E4F0E044E011D01CA12BA12695C3
:100380001795269517952695179526951795912FCC
:10039000A22FE3E4F0E043E001D008953327339542
:1003A000BB27C0E1990FAA1FBB1FBA3010F0BA508B
:1003B0009395CA95B9F7B05DBF939C17AC0779F7D1
:1003C000341720F4339590E29F93FACF9F9104D095
:0C03D0003A95E1F74427089591930895B1
:00000001FF
