:020000020000FC
:1000000005E001B902B9C8D003E407A9C2E4D0E011
:1000100096E020D012EC55D0599156D09A9511EC1B
:1000200050D0599151D09A9510EC4BD059914CD059
:100030009A9515EC46D0599147D09A9514EC41D039
:10004000599142D09A9513EC3CD059913DD09A9554
:1000500005D0D9CF14E435D00DD0089519E831D0AA
:1000600009D00895109A129AEDD01098EBD01298FA
:10007000E9D0089510981298E5D0129AE3D0109A1A
:10008000E1D0089528E0169570F01098DBD0129A10
:10009000D9D01298D7D02A95B1F7109A129AD2D007
:1000A000109812980895109ACDD0129ACBD0129829
:1000B000C9D02A9541F7109A129AC4D01098129874
:1000C0000895D0DFDFDF08955D3229F0533431F039
:1000D000503239F009C0E2E3F1E411C0EAE2F1E4A0
:1000E0000EC0E4E3F1E40BC0E2E1F1E440E3541BB1
:1000F00031F00027EE5FFF4F03950517D9F7108108
:10010000933019F0DEDFB6DF08951068DADFB2DF72
:1001100008953F0006005B004F0066006D007D0003
:1001200007007F006F0077007C0039005E007900D7
:10013000710040000000FF2741E752E0642F752F57
:10014000313041F0303049F03A95640F751F8F1F00
:100150003A95D9F7442755270895772766270895B4
:1001600098E0862F869520F045D09A95D9F7089586
:1001700039D09A95B9F7089598E027D001A10030B9
:1001800051F4862F869520F035D09A95D9F70895A9
:1001900029D09A95B9F7089518D06CECEDDF64E496
:1001A000DFDF4BD087FFFDCF10D0000000006CECEC
:1001B000E3DF6EEBD5DF24D08BA922D08AA905D04E
:1001C00042D00895AA95F1F70895099AACE9FADFAB
:1001D0000998A4E1F7DF00B1027001A9A5E8F2DFF8
:1001E00000000895099A0000000000000998A0E1AD
:1001F000E9DF0895099AA0E1E5DF099823D0089581
:1002000098E08827099A0000000000000998000083
:1002100000000000000000000000019907C0889461
:100220008795ADE0CFDF9A9569F708950894879593
:10023000ADE0C8DF9A9531F7089591E08827E2DFB5
:100240008078089508951BA12AA127FD06C000E229
:1002500002A9312F3F706FDF0DC033271BA12AA1E8
:10026000209510951F5F312F1BA92AA93F700DE221
:1002700002A961DF962FA72FE6E4F0E044E011D059
:100280001BA12AA1269517952695179526951795B2
:1002900026951795912FA22FE3E4F0E043E001D0DB
:1002A000089533273395BB27C0E1990FAA1FBB1FC1
:1002B000BA3010F0BA509395CA95B9F7B05DBF93B4
:1002C0009C17AC0779F7341720F4339590E29F938D
:1002D000FACF9F9104D03A95E1F74427089591937E
:0202E00008957F
:00000001FF
