:020000020000FC
:1000000047D013D03FE04ED02CD005D157D100E2DD
:1000100008A909A903E40AA999E0C2E4D0E015D12E
:10002000599146D09A95E1F7F1CFE0E3F0E40895D5
:10003000A81F200121007F220003DA028D14AF00E7
:10004000089A0895089808950A9A08950A980895B4
:1000500000E001B902B90895F3DFF6DF18E705D033
:100060000895EEDFF3DFEEDF089528E0E9DF012FEA
:10007000007807FDE7DF0000E9DF110FE5DF2A95D3
:10008000A9F7E0DFE3DF00000000DEDFD9DF08953D
:10009000DFDFE2DF10E0E9DF0895DADFDDDF10E423
:1000A000E4DF08954191142FE0DF3A95D9F70895E0
:1000B0005E3239F05D3241F0533449F0503251F044
:1000C0000CC0E6EEF1E414C0E6E0F2E411C0E6EFA5
:1000D000F1E40EC0E6EDF1E40BC0E6E3F1E440E349
:1000E000541B31F00027E05FFF4F03950517D9F748
:1000F000D4DF30E102D0B5DF0895419107D0172F4A
:10010000B4DF182FB2DF3A95C1F708957727882713
:10011000B8E0042F000F38F0771F881F771F881F63
:10012000BA95C1F70895771F881F0894771F881F15
:10013000BA9581F708950000E00F101008200820FC
:100140001010E00F0000000010201020F83F0020E9
:100150000020000000000000703008280824082259
:100160008821703000000000301808208820882086
:100170004811300E000000000007C00420241024A5
:10018000F83F002400000000F8190821882088208A
:100190000811080E00000000E00F101188208820D0
:1001A0001811000E0000000038000800083FC800C9
:1001B0003800080000000000701C88220821082177
:1001C0008822701C00000000E00010310822082284
:1001D0001011E00F0000000000000000000000000F
:1001E00000000000000000000030003000000000AF
:1001F000000000000000C007301808200820082078
:100200000810380800000000000100010001000192
:1002100000010001000119D044E03FDF30E810E0A8
:1002200024DF3A95E1F74A95C9F7089531DF12E2E4
:100230001CDF182F1ADF13E018DF11E216DF172F6B
:1002400014DF1FE712DF0DDF089580E070E0EEDFBE
:100250000895AA95F1F708950895FF2741E752E020
:10026000642F752F313041F0303049F03A95640FEA
:10027000751F8F1F3A95D9F744275527089577277B
:100280006627089598E0862F869520F042D09A95AB
:10029000D9F7089536D09A95B9F7089598E024D003
:1002A00001A1003051F4862F869520F032D09A9526
:1002B000D9F7089526D09A95B9F7089515D06CEC22
:1002C000EDDF64E4DFDF41D087FFFDCF0DD000001C
:1002D00000006CECE3DF6EEBD5DF21D08CA91FD0E2
:1002E0008BA902D057D00895099AACE9B2DF0998DA
:1002F000A4E1AFDF00B1027001A9A5E8AADF000008
:100300000895099A0000000000000998A0E1A1DF0B
:100310000895099AA0E19DDF09989EDF089598E06D
:100320008827099A99DF099897DF019907C088946F
:100330008795ADE08EDF9A95A1F70895089487958B
:10034000ADE087DF9A9569F7089591E08827E9DFA6
:100350008078089533273395BB27C0E1990FAA1FF2
:10036000BB1FBA3010F0BA509395CA95B9F7B05D7B
:10037000BF939C17AC0779F7341720F4339590E2BC
:100380009F93FACF9F9104D03A95E1F744270895BF
:10039000919308950EE206A91CA12BA127FD06C08A
:1003A00000E202A9312F3F7058DF0DC033271CA196
:1003B0002BA1209510951F5F312F1CA92BA93F70F1
:1003C0000DE202A94ADF962FA72FE7E4F0E044E010
:1003D000C1DF1CA12BA1269517952695179526956B
:1003E000179526951795912FA22FE3E4F0E043E0AF
:0403F000B1DF0895DC
:00000001FF
