:020000020000FC
:100000000FEF00931A3E0FEF0093193E0FEF00938E
:10001000183E0FEF0093173E00E00093163E00E0FD
:100020000093153E00E00093143E02E70093133E58
:100030008F927F926F925F924F923F922F921F9278
:10004000A5D11F902F903F904F905F906F907F9021
:100050008F90D6CF08ED04BF01E000936100CAD0B5
:100060000EE20093203E2CD06CECA7D064E4B6D016
:100070009CD067D087FFFDCF23D06CEC9ED06EEB79
:10008000ADD042D080931A3E3FD08093193E3CD0F1
:100090004093183E39D08093173E36D08093163E59
:1000A00033D08093153E30D08093143E2DD0809372
:1000B000133E06D06BD18820B1F6E1D0CAD0D3CFA1
:1000C0000A98029AAFEDB1E053D00298A5E4B0E0EF
:1000D0004FD002B104700093023EA9E9B1E048D0CC
:1000E00000000895029AA5E0B0E042D00298AFE384
:1000F000B0E03ED00895029AABE3B0E039D0029868
:10010000A9E0B0E035D0089598E08827029AA5E0EC
:10011000B0E02ED00298A8E0B0E02AD002B104707E
:1001200041F488948795A6E3B0E022D09A9571F7C0
:10013000089508948795A6E3B0E01AD09A9531F710
:10014000089591E08827E2DF8078089503D0219711
:10015000E9F70895CF93DF93CFEBD9E02197F1F73B
:10016000DF91CF9108950000000000000000089585
:100170000000000000000000000000001197C1F71F
:100180000895C1E0D0E0E2DF0895CAE0D0E0DEDF0C
:100190000895C2E3D0E0DADF0895C4E6D0E0D6DF08
:1001A0000895C4EFD1E0D2DF0895CEEED2E0CEDFE5
:1001B0000895C8EED3E0CADF089598E081DF00918A
:1001C000023E003051F4862F869520F094DF9A95F8
:1001D000D9F7089587DF9A95B9F7089598E0862FA3
:1001E000869520F088DF9A95D9F708957BDF9A9558
:1001F000B9F7089500912004046000932004009151
:10020000240404600093240406E410E10093080829
:100210001093090800E4009306080895009104086B
:10022000007205FFFBCF082F009302080895CCE170
:10023000DEE399E08991F2DF9A9511F0FBCFA5DF1B
:100240000895EEE5F2E08591E9DF803009F0FBCF1B
:100250000895F7DFECDFECE6F2E0F5DF08955445B2
:100260004D50455241545552450A0D00200A0D008B
:10027000649F8001749F100D569F100D089510917A
:100280001B3E20911A3E27FD14C000E200931C3E45
:10029000312F3F7061E772E0432F5527E9DF3FD0F0
:1002A0006092213E7092223E8092233E9092243EA4
:1002B0001FC0332710911B3E20911A3E20951095A8
:1002C0001F5F10931B3E20931A3E312F3F700DE2AB
:1002D00000931C3E61E772E0432F5527C9DF1FD012
:1002E0006092213E7092223E8092233E9092243E64
:1002F00010911B3E20911A3E26951795269517952D
:100300002695179526951795012F122F08D028D0DE
:1003100070921D3E80921E3E90921F3E08952FE2E5
:10032000239500511742E0F7005F184D522E2FE23F
:100330002395085E1340E0F708511C4F622E2FE210
:10034000239504561040E0F70C591F4F722E2FE2F0
:1003500023950A50E8F7065F822E005D902E0895DF
:100360000F9300E3402E0F91541409F0089500E21A
:10037000502E641451F400E2602E741431F400E243
:10038000702E841411F400E2802E089538E3009159
:100390001A3E802E0091193E702E0091183E602E5C
:1003A0000091173E502E0091163E402E0091153EB2
:1003B000302E0091143E202E0091133E102E1CE88A
:1003C0008894169427943794479457946794779415
:1003D000879418F03A95A1F7089581263A9581F708
:0203E00008957E
:00000001FF
